{
  "_format": "hh-sol-artifact-1",
  "contractName": "RNG_game",
  "sourceName": "contracts/RNG_game.sol",
  "abi": [
    {
      "inputs": [],
      "stateMutability": "payable",
      "type": "constructor"
    },
    {
      "anonymous": false,
      "inputs": [
        {
          "indexed": true,
          "internalType": "address",
          "name": "player",
          "type": "address"
        },
        {
          "indexed": false,
          "internalType": "uint256",
          "name": "choice",
          "type": "uint256"
        },
        {
          "components": [
            {
              "internalType": "uint256",
              "name": "reward1",
              "type": "uint256"
            },
            {
              "internalType": "uint256",
              "name": "reward2",
              "type": "uint256"
            },
            {
              "internalType": "uint256",
              "name": "reward3",
              "type": "uint256"
            }
          ],
          "indexed": false,
          "internalType": "struct RNG_game.Reward",
          "name": "reward",
          "type": "tuple"
        }
      ],
      "name": "CardDrawn",
      "type": "event"
    },
    {
      "anonymous": false,
      "inputs": [],
      "name": "FundsWithdrawn",
      "type": "event"
    },
    {
      "anonymous": false,
      "inputs": [
        {
          "indexed": true,
          "internalType": "address",
          "name": "oldOwner",
          "type": "address"
        },
        {
          "indexed": true,
          "internalType": "address",
          "name": "newOwner",
          "type": "address"
        }
      ],
      "name": "OwnerSet",
      "type": "event"
    },
    {
      "inputs": [
        {
          "internalType": "address",
          "name": "newOwner",
          "type": "address"
        }
      ],
      "name": "changeOwner",
      "outputs": [],
      "stateMutability": "nonpayable",
      "type": "function"
    },
    {
      "inputs": [
        {
          "internalType": "uint256",
          "name": "choice",
          "type": "uint256"
        }
      ],
      "name": "drawCards",
      "outputs": [],
      "stateMutability": "payable",
      "type": "function"
    },
    {
      "inputs": [],
      "name": "maxWinningPercent",
      "outputs": [
        {
          "internalType": "uint256",
          "name": "",
          "type": "uint256"
        }
      ],
      "stateMutability": "view",
      "type": "function"
    },
    {
      "inputs": [],
      "name": "owner",
      "outputs": [
        {
          "internalType": "address payable",
          "name": "",
          "type": "address"
        }
      ],
      "stateMutability": "view",
      "type": "function"
    },
    {
      "inputs": [],
      "name": "playerStake",
      "outputs": [
        {
          "internalType": "uint256",
          "name": "",
          "type": "uint256"
        }
      ],
      "stateMutability": "view",
      "type": "function"
    },
    {
      "inputs": [
        {
          "internalType": "uint256",
          "name": "",
          "type": "uint256"
        }
      ],
      "name": "playersHistory",
      "outputs": [
        {
          "internalType": "address",
          "name": "",
          "type": "address"
        }
      ],
      "stateMutability": "view",
      "type": "function"
    },
    {
      "inputs": [],
      "name": "withdrawAllFunds",
      "outputs": [],
      "stateMutability": "nonpayable",
      "type": "function"
    },
    {
      "stateMutability": "payable",
      "type": "receive"
    }
  ],
  "bytecode": "0x6080604052600060025566038d7ea4c680006003556032600455620000606040518060400160405280601b81526020017f4f776e657220636f6e7472616374206465706c6f7965642062793a0000000000815250336200012160201b60201c565b336000806101000a81548173ffffffffffffffffffffffffffffffffffffffff021916908373ffffffffffffffffffffffffffffffffffffffff16021790555060008054906101000a900473ffffffffffffffffffffffffffffffffffffffff1673ffffffffffffffffffffffffffffffffffffffff16600073ffffffffffffffffffffffffffffffffffffffff167f342827c97908e5e2f71151c08502a66d44b6f758e3ac2f1de95f02eb95f0a73560405160405180910390a362000373565b620001c382826040516024016200013a92919062000310565b6040516020818303038152906040527f319af333000000000000000000000000000000000000000000000000000000007bffffffffffffffffffffffffffffffffffffffffffffffffffffffff19166020820180517bffffffffffffffffffffffffffffffffffffffffffffffffffffffff8381831617835250505050620001c760201b60201c565b5050565b620001ed81620001e8620001f060201b62000905176200021160201b60201c565b60201c565b50565b60006a636f6e736f6c652e6c6f679050600080835160208501845afa505050565b6200022560201b62000a6f17819050919050565b6200022f62000344565b565b600081519050919050565b600082825260208201905092915050565b60005b838110156200026d57808201518184015260208101905062000250565b60008484015250505050565b6000601f19601f8301169050919050565b6000620002978262000231565b620002a381856200023c565b9350620002b58185602086016200024d565b620002c08162000279565b840191505092915050565b600073ffffffffffffffffffffffffffffffffffffffff82169050919050565b6000620002f882620002cb565b9050919050565b6200030a81620002eb565b82525050565b600060408201905081810360008301526200032c81856200028a565b90506200033d6020830184620002ff565b9392505050565b7f4e487b7100000000000000000000000000000000000000000000000000000000600052605160045260246000fd5b6112cf80620003836000396000f3fe6080604052600436106100745760003560e01c8063689c933f1161004e578063689c933f146100de5780638da5cb5b1461011b578063a6f9dae114610146578063d7e965c31461016f5761007b565b8063361aeddf14610080578063433142921461009c57806349649fbf146100c75761007b565b3661007b57005b600080fd5b61009a60048036038101906100959190610ad5565b61019a565b005b3480156100a857600080fd5b506100b16105c1565b6040516100be9190610b11565b60405180910390f35b3480156100d357600080fd5b506100dc6105c7565b005b3480156100ea57600080fd5b5061010560048036038101906101009190610ad5565b610751565b6040516101129190610b6d565b60405180910390f35b34801561012757600080fd5b50610130610790565b60405161013d9190610ba9565b60405180910390f35b34801561015257600080fd5b5061016d60048036038101906101689190610bf0565b6107b4565b005b34801561017b57600080fd5b506101846108ff565b6040516101919190610b11565b60405180910390f35b66071afd498d00004710156101e4576040517f08c379a00000000000000000000000000000000000000000000000000000000081526004016101db90610c7a565b60405180910390fd5b600081101580156101f55750600381105b610234576040517f08c379a000000000000000000000000000000000000000000000000000000000815260040161022b90610ce6565b60405180910390fd5b600354341015610279576040517f08c379a000000000000000000000000000000000000000000000000000000000815260040161027090610d52565b60405180910390fd5b6001339080600181540180825580915050600190039060005260206000200160009091909190916101000a81548173ffffffffffffffffffffffffffffffffffffffff021916908373ffffffffffffffffffffffffffffffffffffffff1602179055506000600160026001805490506102f29190610dd0565b8154811061030357610302610e01565b5b9060005260206000200160009054906101000a900473ffffffffffffffffffffffffffffffffffffffff169050600061033b82610926565b9050600083036103fb5760003373ffffffffffffffffffffffffffffffffffffffff16826000015160405161036f90610e61565b60006040518083038185875af1925050503d80600081146103ac576040519150601f19603f3d011682016040523d82523d6000602084013e6103b1565b606091505b50509050806103f5576040517f08c379a00000000000000000000000000000000000000000000000000000000081526004016103ec90610ec2565b60405180910390fd5b5061056c565b600183036104b95760003373ffffffffffffffffffffffffffffffffffffffff16826020015160405161042d90610e61565b60006040518083038185875af1925050503d806000811461046a576040519150601f19603f3d011682016040523d82523d6000602084013e61046f565b606091505b50509050806104b3576040517f08c379a00000000000000000000000000000000000000000000000000000000081526004016104aa90610ec2565b60405180910390fd5b5061056b565b60003373ffffffffffffffffffffffffffffffffffffffff1682604001516040516104e390610e61565b60006040518083038185875af1925050503d8060008114610520576040519150601f19603f3d011682016040523d82523d6000602084013e610525565b606091505b5050905080610569576040517f08c379a000000000000000000000000000000000000000000000000000000000815260040161056090610ec2565b60405180910390fd5b505b5b3373ffffffffffffffffffffffffffffffffffffffff167f5f886b90022faa54f6ce5a2ee38c9607dd63d448f9d6087f9cf5c2aa632b1e6e84836040516105b4929190610f33565b60405180910390a2505050565b60045481565b60008054906101000a900473ffffffffffffffffffffffffffffffffffffffff1673ffffffffffffffffffffffffffffffffffffffff163373ffffffffffffffffffffffffffffffffffffffff1614610655576040517f08c379a000000000000000000000000000000000000000000000000000000000815260040161064c90610fa8565b60405180910390fd5b60008060009054906101000a900473ffffffffffffffffffffffffffffffffffffffff1673ffffffffffffffffffffffffffffffffffffffff164760405161069c90610e61565b60006040518083038185875af1925050503d80600081146106d9576040519150601f19603f3d011682016040523d82523d6000602084013e6106de565b606091505b5050905080610722576040517f08c379a000000000000000000000000000000000000000000000000000000000815260040161071990611014565b60405180910390fd5b7f8bc80bedab1880aef001dec8c051374ea7852d7539de5394888e1298d335bec560405160405180910390a150565b6001818154811061076157600080fd5b906000526020600020016000915054906101000a900473ffffffffffffffffffffffffffffffffffffffff1681565b60008054906101000a900473ffffffffffffffffffffffffffffffffffffffff1681565b60008054906101000a900473ffffffffffffffffffffffffffffffffffffffff1673ffffffffffffffffffffffffffffffffffffffff163373ffffffffffffffffffffffffffffffffffffffff1614610842576040517f08c379a000000000000000000000000000000000000000000000000000000000815260040161083990610fa8565b60405180910390fd5b8073ffffffffffffffffffffffffffffffffffffffff1660008054906101000a900473ffffffffffffffffffffffffffffffffffffffff1673ffffffffffffffffffffffffffffffffffffffff167f342827c97908e5e2f71151c08502a66d44b6f758e3ac2f1de95f02eb95f0a73560405160405180910390a3806000806101000a81548173ffffffffffffffffffffffffffffffffffffffff021916908373ffffffffffffffffffffffffffffffffffffffff16021790555050565b60035481565b60006a636f6e736f6c652e6c6f679050600080835160208501845afa505050565b61092e610a79565b6000600a60045461093f9190610dd0565b600a61094b9190611034565b905060006040518060600160405280600a60035461096b6000878a6109e2565b6109759190611068565b61097f9190610dd0565b8152602001600a6003546109956000878a6109e2565b61099f9190611068565b6109a99190610dd0565b8152602001600a6003546109bf6000878a6109e2565b6109c99190611068565b6109d39190610dd0565b81525090508092505050919050565b600080424443418633600254604051602001610a04979695949392919061113c565b6040516020818303038152906040528051906020012060001c905060026000815480929190610a32906111bd565b919050555060018585610a459190611205565b610a4f9190611034565b81610a5a9190611239565b85610a659190611034565b9150509392505050565b610a7761126a565b565b60405180606001604052806000815260200160008152602001600081525090565b600080fd5b6000819050919050565b610ab281610a9f565b8114610abd57600080fd5b50565b600081359050610acf81610aa9565b92915050565b600060208284031215610aeb57610aea610a9a565b5b6000610af984828501610ac0565b91505092915050565b610b0b81610a9f565b82525050565b6000602082019050610b266000830184610b02565b92915050565b600073ffffffffffffffffffffffffffffffffffffffff82169050919050565b6000610b5782610b2c565b9050919050565b610b6781610b4c565b82525050565b6000602082019050610b826000830184610b5e565b92915050565b6000610b9382610b2c565b9050919050565b610ba381610b88565b82525050565b6000602082019050610bbe6000830184610b9a565b92915050565b610bcd81610b4c565b8114610bd857600080fd5b50565b600081359050610bea81610bc4565b92915050565b600060208284031215610c0657610c05610a9a565b5b6000610c1484828501610bdb565b91505092915050565b600082825260208201905092915050565b7f4e6f7420656e6f7567682045544820696e20636f6e7472616374000000000000600082015250565b6000610c64601a83610c1d565b9150610c6f82610c2e565b602082019050919050565b60006020820190508181036000830152610c9381610c57565b9050919050565b7f496e76616c69642063686f696365000000000000000000000000000000000000600082015250565b6000610cd0600e83610c1d565b9150610cdb82610c9a565b602082019050919050565b60006020820190508181036000830152610cff81610cc3565b9050919050565b7f4e6f7420656e6f7567682045746820746f206472617700000000000000000000600082015250565b6000610d3c601683610c1d565b9150610d4782610d06565b602082019050919050565b60006020820190508181036000830152610d6b81610d2f565b9050919050565b7f4e487b7100000000000000000000000000000000000000000000000000000000600052601260045260246000fd5b7f4e487b7100000000000000000000000000000000000000000000000000000000600052601160045260246000fd5b6000610ddb82610a9f565b9150610de683610a9f565b925082610df657610df5610d72565b5b828204905092915050565b7f4e487b7100000000000000000000000000000000000000000000000000000000600052603260045260246000fd5b600081905092915050565b50565b6000610e4b600083610e30565b9150610e5682610e3b565b600082019050919050565b6000610e6c82610e3e565b9150819050919050565b7f5472616e736665722077696e6e696e6720746f20706c61796572206661696c00600082015250565b6000610eac601f83610c1d565b9150610eb782610e76565b602082019050919050565b60006020820190508181036000830152610edb81610e9f565b9050919050565b610eeb81610a9f565b82525050565b606082016000820151610f076000850182610ee2565b506020820151610f1a6020850182610ee2565b506040820151610f2d6040850182610ee2565b50505050565b6000608082019050610f486000830185610b02565b610f556020830184610ef1565b9392505050565b7f43616c6c6572206973206e6f74206f776e657200000000000000000000000000600082015250565b6000610f92601383610c1d565b9150610f9d82610f5c565b602082019050919050565b60006020820190508181036000830152610fc181610f85565b9050919050565b7f5472616e736665722066756e647320746f206f776e6572206661696c00000000600082015250565b6000610ffe601c83610c1d565b915061100982610fc8565b602082019050919050565b6000602082019050818103600083015261102d81610ff1565b9050919050565b600061103f82610a9f565b915061104a83610a9f565b925082820190508082111561106257611061610da1565b5b92915050565b600061107382610a9f565b915061107e83610a9f565b925082820261108c81610a9f565b915082820484148315176110a3576110a2610da1565b5b5092915050565b6000819050919050565b6110c56110c082610a9f565b6110aa565b82525050565b60008160601b9050919050565b60006110e3826110cb565b9050919050565b60006110f5826110d8565b9050919050565b61110d61110882610b88565b6110ea565b82525050565b600061111e826110d8565b9050919050565b61113661113182610b4c565b611113565b82525050565b6000611148828a6110b4565b60208201915061115882896110b4565b60208201915061116882886110b4565b60208201915061117882876110fc565b6014820191506111888286611125565b6014820191506111988285611125565b6014820191506111a882846110b4565b60208201915081905098975050505050505050565b60006111c882610a9f565b91507fffffffffffffffffffffffffffffffffffffffffffffffffffffffffffffffff82036111fa576111f9610da1565b5b600182019050919050565b600061121082610a9f565b915061121b83610a9f565b925082820390508181111561123357611232610da1565b5b92915050565b600061124482610a9f565b915061124f83610a9f565b92508261125f5761125e610d72565b5b828206905092915050565b7f4e487b7100000000000000000000000000000000000000000000000000000000600052605160045260246000fdfea2646970667358221220478a1f17560c71a1ac316bad5819ea226183accce2e0619eb964bcdb066c3e1c64736f6c63430008180033",
  "linkReferences": {},
  "deployedLinkReferences": {}
}