{
  "_format": "hh-sol-artifact-1",
  "contractName": "RNG_game",
  "sourceName": "contracts/RNG_game.sol",
  "abi": [
    {
      "inputs": [],
      "stateMutability": "payable",
      "type": "constructor"
    },
    {
      "anonymous": false,
      "inputs": [
        {
          "indexed": true,
          "internalType": "address",
          "name": "player",
          "type": "address"
        },
        {
          "indexed": false,
          "internalType": "uint256",
          "name": "choice",
          "type": "uint256"
        },
        {
          "components": [
            {
              "internalType": "uint256",
              "name": "reward1",
              "type": "uint256"
            },
            {
              "internalType": "uint256",
              "name": "reward2",
              "type": "uint256"
            },
            {
              "internalType": "uint256",
              "name": "reward3",
              "type": "uint256"
            }
          ],
          "indexed": false,
          "internalType": "struct RNG_game.Reward",
          "name": "reward",
          "type": "tuple"
        }
      ],
      "name": "CardDrawn",
      "type": "event"
    },
    {
      "anonymous": false,
      "inputs": [],
      "name": "FundsWithdrawn",
      "type": "event"
    },
    {
      "anonymous": false,
      "inputs": [
        {
          "indexed": true,
          "internalType": "address",
          "name": "oldOwner",
          "type": "address"
        },
        {
          "indexed": true,
          "internalType": "address",
          "name": "newOwner",
          "type": "address"
        }
      ],
      "name": "OwnerSet",
      "type": "event"
    },
    {
      "inputs": [
        {
          "internalType": "address",
          "name": "newOwner",
          "type": "address"
        }
      ],
      "name": "changeOwner",
      "outputs": [],
      "stateMutability": "nonpayable",
      "type": "function"
    },
    {
      "inputs": [
        {
          "internalType": "uint256",
          "name": "choice",
          "type": "uint256"
        }
      ],
      "name": "drawCards",
      "outputs": [],
      "stateMutability": "payable",
      "type": "function"
    },
    {
      "inputs": [],
      "name": "maxWinningPercent",
      "outputs": [
        {
          "internalType": "uint256",
          "name": "",
          "type": "uint256"
        }
      ],
      "stateMutability": "view",
      "type": "function"
    },
    {
      "inputs": [],
      "name": "owner",
      "outputs": [
        {
          "internalType": "address payable",
          "name": "",
          "type": "address"
        }
      ],
      "stateMutability": "view",
      "type": "function"
    },
    {
      "inputs": [],
      "name": "playerStake",
      "outputs": [
        {
          "internalType": "uint256",
          "name": "",
          "type": "uint256"
        }
      ],
      "stateMutability": "view",
      "type": "function"
    },
    {
      "inputs": [
        {
          "internalType": "uint256",
          "name": "",
          "type": "uint256"
        }
      ],
      "name": "playersHistory",
      "outputs": [
        {
          "internalType": "address",
          "name": "",
          "type": "address"
        }
      ],
      "stateMutability": "view",
      "type": "function"
    },
    {
      "inputs": [],
      "name": "withdrawAllFunds",
      "outputs": [],
      "stateMutability": "nonpayable",
      "type": "function"
    },
    {
      "stateMutability": "payable",
      "type": "receive"
    }
  ],
  "bytecode": "0x60806040526000600255662386f26fc100006003556032600455620000606040518060400160405280601b81526020017f4f776e657220636f6e7472616374206465706c6f7965642062793a0000000000815250336200012160201b60201c565b336000806101000a81548173ffffffffffffffffffffffffffffffffffffffff021916908373ffffffffffffffffffffffffffffffffffffffff16021790555060008054906101000a900473ffffffffffffffffffffffffffffffffffffffff1673ffffffffffffffffffffffffffffffffffffffff16600073ffffffffffffffffffffffffffffffffffffffff167f342827c97908e5e2f71151c08502a66d44b6f758e3ac2f1de95f02eb95f0a73560405160405180910390a362000373565b620001c382826040516024016200013a92919062000310565b6040516020818303038152906040527f319af333000000000000000000000000000000000000000000000000000000007bffffffffffffffffffffffffffffffffffffffffffffffffffffffff19166020820180517bffffffffffffffffffffffffffffffffffffffffffffffffffffffff8381831617835250505050620001c760201b60201c565b5050565b620001ed81620001e8620001f060201b6200090c176200021160201b60201c565b60201c565b50565b60006a636f6e736f6c652e6c6f679050600080835160208501845afa505050565b6200022560201b62000a7617819050919050565b6200022f62000344565b565b600081519050919050565b600082825260208201905092915050565b60005b838110156200026d57808201518184015260208101905062000250565b60008484015250505050565b6000601f19601f8301169050919050565b6000620002978262000231565b620002a381856200023c565b9350620002b58185602086016200024d565b620002c08162000279565b840191505092915050565b600073ffffffffffffffffffffffffffffffffffffffff82169050919050565b6000620002f882620002cb565b9050919050565b6200030a81620002eb565b82525050565b600060408201905081810360008301526200032c81856200028a565b90506200033d6020830184620002ff565b9392505050565b7f4e487b7100000000000000000000000000000000000000000000000000000000600052605160045260246000fd5b6112d680620003836000396000f3fe6080604052600436106100745760003560e01c8063689c933f1161004e578063689c933f146100de5780638da5cb5b1461011b578063a6f9dae114610146578063d7e965c31461016f5761007b565b8063361aeddf14610080578063433142921461009c57806349649fbf146100c75761007b565b3661007b57005b600080fd5b61009a60048036038101906100959190610adc565b61019a565b005b3480156100a857600080fd5b506100b16105c8565b6040516100be9190610b18565b60405180910390f35b3480156100d357600080fd5b506100dc6105ce565b005b3480156100ea57600080fd5b5061010560048036038101906101009190610adc565b610758565b6040516101129190610b74565b60405180910390f35b34801561012757600080fd5b50610130610797565b60405161013d9190610bb0565b60405180910390f35b34801561015257600080fd5b5061016d60048036038101906101689190610bf7565b6107bb565b005b34801561017b57600080fd5b50610184610906565b6040516101919190610b18565b60405180910390f35b60026003546101a99190610c53565b4710156101eb576040517f08c379a00000000000000000000000000000000000000000000000000000000081526004016101e290610cf2565b60405180910390fd5b600081101580156101fc5750600381105b61023b576040517f08c379a000000000000000000000000000000000000000000000000000000000815260040161023290610d5e565b60405180910390fd5b600354341015610280576040517f08c379a000000000000000000000000000000000000000000000000000000000815260040161027790610dca565b60405180910390fd5b6001339080600181540180825580915050600190039060005260206000200160009091909190916101000a81548173ffffffffffffffffffffffffffffffffffffffff021916908373ffffffffffffffffffffffffffffffffffffffff1602179055506000600160026001805490506102f99190610e19565b8154811061030a57610309610e4a565b5b9060005260206000200160009054906101000a900473ffffffffffffffffffffffffffffffffffffffff16905060006103428261092d565b9050600083036104025760003373ffffffffffffffffffffffffffffffffffffffff16826000015160405161037690610eaa565b60006040518083038185875af1925050503d80600081146103b3576040519150601f19603f3d011682016040523d82523d6000602084013e6103b8565b606091505b50509050806103fc576040517f08c379a00000000000000000000000000000000000000000000000000000000081526004016103f390610f0b565b60405180910390fd5b50610573565b600183036104c05760003373ffffffffffffffffffffffffffffffffffffffff16826020015160405161043490610eaa565b60006040518083038185875af1925050503d8060008114610471576040519150601f19603f3d011682016040523d82523d6000602084013e610476565b606091505b50509050806104ba576040517f08c379a00000000000000000000000000000000000000000000000000000000081526004016104b190610f0b565b60405180910390fd5b50610572565b60003373ffffffffffffffffffffffffffffffffffffffff1682604001516040516104ea90610eaa565b60006040518083038185875af1925050503d8060008114610527576040519150601f19603f3d011682016040523d82523d6000602084013e61052c565b606091505b5050905080610570576040517f08c379a000000000000000000000000000000000000000000000000000000000815260040161056790610f0b565b60405180910390fd5b505b5b3373ffffffffffffffffffffffffffffffffffffffff167f5f886b90022faa54f6ce5a2ee38c9607dd63d448f9d6087f9cf5c2aa632b1e6e84836040516105bb929190610f7c565b60405180910390a2505050565b60045481565b60008054906101000a900473ffffffffffffffffffffffffffffffffffffffff1673ffffffffffffffffffffffffffffffffffffffff163373ffffffffffffffffffffffffffffffffffffffff161461065c576040517f08c379a000000000000000000000000000000000000000000000000000000000815260040161065390610ff1565b60405180910390fd5b60008060009054906101000a900473ffffffffffffffffffffffffffffffffffffffff1673ffffffffffffffffffffffffffffffffffffffff16476040516106a390610eaa565b60006040518083038185875af1925050503d80600081146106e0576040519150601f19603f3d011682016040523d82523d6000602084013e6106e5565b606091505b5050905080610729576040517f08c379a00000000000000000000000000000000000000000000000000000000081526004016107209061105d565b60405180910390fd5b7f8bc80bedab1880aef001dec8c051374ea7852d7539de5394888e1298d335bec560405160405180910390a150565b6001818154811061076857600080fd5b906000526020600020016000915054906101000a900473ffffffffffffffffffffffffffffffffffffffff1681565b60008054906101000a900473ffffffffffffffffffffffffffffffffffffffff1681565b60008054906101000a900473ffffffffffffffffffffffffffffffffffffffff1673ffffffffffffffffffffffffffffffffffffffff163373ffffffffffffffffffffffffffffffffffffffff1614610849576040517f08c379a000000000000000000000000000000000000000000000000000000000815260040161084090610ff1565b60405180910390fd5b8073ffffffffffffffffffffffffffffffffffffffff1660008054906101000a900473ffffffffffffffffffffffffffffffffffffffff1673ffffffffffffffffffffffffffffffffffffffff167f342827c97908e5e2f71151c08502a66d44b6f758e3ac2f1de95f02eb95f0a73560405160405180910390a3806000806101000a81548173ffffffffffffffffffffffffffffffffffffffff021916908373ffffffffffffffffffffffffffffffffffffffff16021790555050565b60035481565b60006a636f6e736f6c652e6c6f679050600080835160208501845afa505050565b610935610a80565b6000600a6004546109469190610e19565b600a610952919061107d565b905060006040518060600160405280600a6003546109726000878a6109e9565b61097c9190610c53565b6109869190610e19565b8152602001600a60035461099c6000878a6109e9565b6109a69190610c53565b6109b09190610e19565b8152602001600a6003546109c66000878a6109e9565b6109d09190610c53565b6109da9190610e19565b81525090508092505050919050565b600080424443418633600254604051602001610a0b9796959493929190611143565b6040516020818303038152906040528051906020012060001c905060026000815480929190610a39906111c4565b919050555060018585610a4c919061120c565b610a56919061107d565b81610a619190611240565b85610a6c919061107d565b9150509392505050565b610a7e611271565b565b60405180606001604052806000815260200160008152602001600081525090565b600080fd5b6000819050919050565b610ab981610aa6565b8114610ac457600080fd5b50565b600081359050610ad681610ab0565b92915050565b600060208284031215610af257610af1610aa1565b5b6000610b0084828501610ac7565b91505092915050565b610b1281610aa6565b82525050565b6000602082019050610b2d6000830184610b09565b92915050565b600073ffffffffffffffffffffffffffffffffffffffff82169050919050565b6000610b5e82610b33565b9050919050565b610b6e81610b53565b82525050565b6000602082019050610b896000830184610b65565b92915050565b6000610b9a82610b33565b9050919050565b610baa81610b8f565b82525050565b6000602082019050610bc56000830184610ba1565b92915050565b610bd481610b53565b8114610bdf57600080fd5b50565b600081359050610bf181610bcb565b92915050565b600060208284031215610c0d57610c0c610aa1565b5b6000610c1b84828501610be2565b91505092915050565b7f4e487b7100000000000000000000000000000000000000000000000000000000600052601160045260246000fd5b6000610c5e82610aa6565b9150610c6983610aa6565b9250828202610c7781610aa6565b91508282048414831517610c8e57610c8d610c24565b5b5092915050565b600082825260208201905092915050565b7f4e6f7420656e6f7567682045544820696e20636f6e7472616374000000000000600082015250565b6000610cdc601a83610c95565b9150610ce782610ca6565b602082019050919050565b60006020820190508181036000830152610d0b81610ccf565b9050919050565b7f496e76616c69642063686f696365000000000000000000000000000000000000600082015250565b6000610d48600e83610c95565b9150610d5382610d12565b602082019050919050565b60006020820190508181036000830152610d7781610d3b565b9050919050565b7f4e6f7420656e6f7567682045746820746f206472617700000000000000000000600082015250565b6000610db4601683610c95565b9150610dbf82610d7e565b602082019050919050565b60006020820190508181036000830152610de381610da7565b9050919050565b7f4e487b7100000000000000000000000000000000000000000000000000000000600052601260045260246000fd5b6000610e2482610aa6565b9150610e2f83610aa6565b925082610e3f57610e3e610dea565b5b828204905092915050565b7f4e487b7100000000000000000000000000000000000000000000000000000000600052603260045260246000fd5b600081905092915050565b50565b6000610e94600083610e79565b9150610e9f82610e84565b600082019050919050565b6000610eb582610e87565b9150819050919050565b7f5472616e736665722077696e6e696e6720746f20706c61796572206661696c00600082015250565b6000610ef5601f83610c95565b9150610f0082610ebf565b602082019050919050565b60006020820190508181036000830152610f2481610ee8565b9050919050565b610f3481610aa6565b82525050565b606082016000820151610f506000850182610f2b565b506020820151610f636020850182610f2b565b506040820151610f766040850182610f2b565b50505050565b6000608082019050610f916000830185610b09565b610f9e6020830184610f3a565b9392505050565b7f43616c6c6572206973206e6f74206f776e657200000000000000000000000000600082015250565b6000610fdb601383610c95565b9150610fe682610fa5565b602082019050919050565b6000602082019050818103600083015261100a81610fce565b9050919050565b7f5472616e736665722066756e647320746f206f776e6572206661696c00000000600082015250565b6000611047601c83610c95565b915061105282611011565b602082019050919050565b600060208201905081810360008301526110768161103a565b9050919050565b600061108882610aa6565b915061109383610aa6565b92508282019050808211156110ab576110aa610c24565b5b92915050565b6000819050919050565b6110cc6110c782610aa6565b6110b1565b82525050565b60008160601b9050919050565b60006110ea826110d2565b9050919050565b60006110fc826110df565b9050919050565b61111461110f82610b8f565b6110f1565b82525050565b6000611125826110df565b9050919050565b61113d61113882610b53565b61111a565b82525050565b600061114f828a6110bb565b60208201915061115f82896110bb565b60208201915061116f82886110bb565b60208201915061117f8287611103565b60148201915061118f828661112c565b60148201915061119f828561112c565b6014820191506111af82846110bb565b60208201915081905098975050505050505050565b60006111cf82610aa6565b91507fffffffffffffffffffffffffffffffffffffffffffffffffffffffffffffffff820361120157611200610c24565b5b600182019050919050565b600061121782610aa6565b915061122283610aa6565b925082820390508181111561123a57611239610c24565b5b92915050565b600061124b82610aa6565b915061125683610aa6565b92508261126657611265610dea565b5b828206905092915050565b7f4e487b7100000000000000000000000000000000000000000000000000000000600052605160045260246000fdfea26469706673582212201135e2ae6a037eba90f35d972cee3f396c99420d4cde3fa341e8b014018136a364736f6c63430008180033",
  "linkReferences": {},
  "deployedLinkReferences": {}
}